:100000000C94CC000C944F040C94E9000C94E9007F
:100010000C94E9000C94E9000C94E9000C94E900BC
:100020000C94E9000C94E9000C94E9000C94E900AC
:100030000C94E9000C94E9000C94E9000C94E9009C
:100040000C94E9000C94E9000C9492070C94E900DC
:100050000C94E9000C94E9000C94E9000C94E9007C
:100060000C94E9000C94E900084AD73B3BCE016EA2
:1000700084BCBFFDC12F3D6C74319ABD56833DDAFF
:100080003D00C77F11BED9E4BB4C3E916BAAAABE0E
:10009000000000803F6E616E00696E660000407A6D
:1000A00010F35A00A0724E18090010A5D4E8000001
:1000B000E87648170000E40B54020000CA9A3B009F
:1000C0000000E1F505000080969800000040420F16
:1000D000000000A08601000000102700000000E8DA
:1000E00003000000006400000000000A000000009F
:1000F000000100000000002C76D888DC674F082340
:10010000DFC1DFAE59E1B1B796E5E3E453C63AE6A5
:1001100051997696E8E6C28426EB898C9B62ED4085
:100120007C6FFCEFBC9C9F40F2BAA56FA5F49005D4
:100130005A2AF75C936B6CF9676DC11BFCE0E40D08
:1001400047FEF520E6B500D0ED902E0300943577FC
:10015000050080841E080000204E0A000000C80C24
:10016000333333330F986E12831141EF8D2114898D
:100170003BE65516CFFEE6DB18D1844B381BF77CE7
:100180001D901DA4BBE424203284725E228100C92C
:10019000F124ECA1E53D270011241FBECFEFD8E0EC
:1001A000DEBFCDBF11E0A0E0B1E0E6EDF0E202C0BD
:1001B00005900D92A436B107D9F711E0A4E6B1E09D
:1001C00001C01D92AA3BB107E1F70E941D020C94E9
:1001D00069100C940000EF92FF920F931F93CF933E
:1001E000DF93EC0129813A814B815C8160E074E20C
:1001F00084EF90E00E944E0E79018A01288130E060
:1002000040E050E0C801B7010E944E0E205130403E
:100210004040504056954795379527952093B80014
:10022000888181508093B900DF91CF911F910F9108
:10023000FF90EF900895ECEBF0E0108294EA908349
:1002400090819923ECF79091B900987F9830A1F4B0
:100250008093BB0084E88093BC00ECEBF0E08081ED
:100260008823ECF79091B900987F983139F081E0BC
:10027000903429F080E0089580E0089581E00895A9
:100280008295880F880F807C84688093BC00ECEB9B
:10029000F0E080818823ECF78091BB000895809383
:1002A000BB0084E88093BC00ECEBF0E08081882305
:1002B000ECF79091B900987F81E0983209F080E0E6
:1002C000089584E98093BC000895FF920F931F93D3
:1002D000082F162FF42E812F0E941B018823D9F39B
:1002E0008F2D0E944F01802F0E944F010E946101BB
:1002F0001F910F91FF9008950F931F93182F062FB2
:10030000812F0E941B018823D9F3802F0E944F0167
:10031000812F81600E941B0180E00E944001182F04
:100320000E946101812F1F910F9108950F931F93D8
:10033000182F062F812F0E941B018823D9F3802FAD
:100340000E944F01812F81600E941B0181E00E9469
:100350004001082F80E00E944001182F0E94610197
:10036000502F40E0212F30E0242B352B822F932F6C
:100370001F910F910895DF92EF92FF920F931F93B9
:10038000F82E162FD42EE22E0E947C012D2D30E067
:100390002F5F3F4F2E19310941E050E002C0440F5A
:1003A000551FEA94E2F741505040022E02C0440F1C
:1003B000551F0A94E2F7E42E402F50E0BA0102C024
:1003C000660F771F2A95E2F79B019E2D9095892352
:1003D0002E21822B6F2D412F0E9465011F910F91BD
:1003E000FF90EF90DF900895EF92FF920F931F938D
:1003F000082F162FF42EE22E0E947C01EE2051F0E1
:1004000061E070E0AB0102C0440F551FFA94E2F7BF
:10041000842B0AC041E050E09A0102C0220F331F32
:10042000FA94E2F720958223602F412F0E94650104
:100430001F910F91FF90EF9008954F925F926F92EE
:100440007F928F929F92AF92BF92CF92DF92EF9264
:10045000FF920F931F93DF93CF93CDB7DEB76F97C4
:100460000FB6F894DEBF0FBECDBF8AB18AB95A9AD3
:10047000E89AE9E6F0E080818C608083E09A83E08E
:10048000898782E08F838887EE24E394EA86CE0111
:1004900007960E941A0781E090E060E070E020E09B
:1004A00030E046E156E40E94480780E091E00E9477
:1004B000D60F80EA96E8A1E0B0E08C879D87AE87F2
:1004C000BF87EB8680ED80936D01CE010B960E9475
:1004D000EB00CE014096BE016A5E7F4F0E94DE04B3
:1004E00081E191E00E94D60F8DB79EB70A970FB6B3
:1004F000F8949EBF0FBE8DBFEDB7FEB7319626EACA
:100500003BE944EC5BE3ADB7BEB711962D933D9349
:100510004D935C93149786E791E09583848384E7F9
:1005200091E09783868382E791E09187808781E0DD
:1005300061E041E000E010E028E432E40F2EFAE947
:10054000CF2EF9E9DF2EF9E9EF2EFFE3FF2EF02D94
:100550000F2EF0E08F2EF0E09F2EF8ECAF2EF2E49D
:10056000BF2EF02D0E943F058DB79EB70A960FB69D
:10057000F8949EBF0FBE8DBF84EB90E06CE47FEFDC
:100580000E94FF068091540190915501909375014E
:100590008093740178940F2EF5E06F2E7724F02D60
:1005A0006C0E7D1E0F2EF3E04F2E5524F02D4C0EB9
:1005B0005D1E4E010894811C911C8091640188236A
:1005C000E1F3C3010E943205C401B2010E94180583
:1005D00069817A81882777FD8095982F0E9482090A
:1005E00023EC35EF4CE15AE30E943E0A7B018C017B
:1005F0006B817C81882777FD8095982F0E948209E6
:1006000023EC35EF4CE15AE30E943E0A9B01AC011A
:10061000C801B7010E9494087B018C016D817E8125
:10062000882777FD8095982F0E94820920E030E08E
:100630004AEF5BE30E943E0A26EA3BE944EC5BE3B7
:100640000E943E0A9B01AC0160916E0170916F01A6
:1006500080917001909171010E94200828E431EE90
:100660004AE75FE30E943E0A5B016C01C801B701E3
:1006700023EA3CE445E652E40E943E0A2AE037EDD4
:1006800043EA5CE30E943E0A9B01AC01C601B5014E
:100690000E942108A72FF82FE92F262F372F482F48
:1006A000592F20937601309377014093780150932E
:1006B0007901862F9A2FAF2FBE2F80936E019093D2
:1006C0006F01A0937001B09371010E94D1050E9447
:1006D000BB061092640171CF80917C018735C9F00F
:1006E000883548F4843409F48FC0833581F181342E
:1006F00009F0C9C04AC0843609F486C0853620F4A2
:10070000813609F0C0C041C0833709F1873709F04D
:10071000BAC089E191E00E94D60F80917401909156
:1007200075010596909375018093740100D000D0F7
:1007300023E231E0EDB7FEB73283218394838383D4
:100740000E94C10F0F900F900F900F90089588E2B4
:1007500091E00E94D60F80917401909175010597E8
:10076000909375018093740100D000D023E231E0B2
:10077000EDB7FEB732832183948383830E94C10F38
:100780000F900F900F900F900895809154019091C9
:100790005501909375018093740180917C018823A9
:1007A000D1F021E038EC8CE791E05C9A5F982D9ACB
:1007B0002C9837BD38BD4FEF51EE64E041505040AA
:1007C0006040E1F700C00000FC01E20FF11D408134
:1007D0002F5F442351F78FE291E00E94D60F00D0A3
:1007E00000D083E291E0EDB7FEB7928381838091E0
:1007F000740190917501948383830E94C10F0F90BF
:100800000F900F900F900895809154019091550191
:10081000909375018093740180917C018823D1F0BD
:1008200021E038EC8CE791E05C985F9A2D982C9A47
:1008300037BD38BD4FEF51EE64E04150504060404D
:10084000E1F700C00000FC01E20FF11D40812F5FC5
:10085000442351F78AE391E00E94D60F00D000D0E4
:1008600083E291E0EDB7FEB79283818380917401BA
:1008700090917501948383830E94C10F0F900F9014
:100880000F900F90089500D083E491E0EDB7FEB78C
:10089000928381830E94C10F0F900F9008951F9241
:1008A0000F920FB60F9211248F9381E08093640111
:1008B0008F910F900FBE0F901F901895FC018081B3
:1008C00060916D0149E10E94650108950F93FC015B
:1008D00080916D016AE142E023E001810E94BB0149
:1008E0000F9108950F93FC0180916D016BE144E03D
:1008F00022E003810E94BB010F9108950F93FC0138
:1009000080916D016CE144E022E004810E94BB0112
:100910000F910895FC0151815295550F550F507C50
:100920004081479544274795452B32813295330FB7
:10093000307E342B23812295207F232B8481880FC6
:10094000880F880F822B9581990F990F982B86819C
:10095000880F892B60916D0147E30E94650108951E
:10096000FC0197819295907F8085880F880F880F72
:10097000892B9185892B60916D0148E30E94650167
:100980000895282F80916D016BE646E00E94F401E6
:10099000089521E0282780916D016BE643E00E94D5
:1009A000F40108950F93FC0180916D016BE642E024
:1009B00023E005810E94BB010F9108950F931F93BF
:1009C000CF93DF938C01EB0185E0F801808383E016
:1009D000818312821382148281E0858318861F82AC
:1009E0008987888319828A838B831D821C821E8259
:1009F000C8010E946604C8010E94D204C8010E9476
:100A00007204C8010E947E04C8010E945E0480E056
:100A10000E94C90480E00E94C104CE010E948A04A1
:100A2000CE010E94B004DF91CF911F910F910895E4
:100A30000F931F93CF93DF938C01EB0180916D0196
:100A40006BE30E949601F8019183808380916D0190
:100A50006FE30E94960199838883DF91CF911F9164
:100A60000F910895CF93DF93EC0180916D0165E4C0
:100A70000E94960199838883DF91CF9108952F92E8
:100A80003F924F925F927F928F929F92AF92BF92CE
:100A9000CF92DF92EF92FF920F931F93DF93CF934A
:100AA000CDB7DEB7742E2C883D884E885F88488D80
:100AB000598D5093AB014093AA014A8D5B8D5093A1
:100AC000A5014093A4014C8D5D8D5093A9014093E5
:100AD000A801579A259A249A549A5C982D982C9894
:100AE0005F98882349F00093B0011093B1012093DF
:100AF000B2013093B3010BC080E090E0DC01809341
:100B0000B0019093B101A093B201B093B3016623F9
:100B100079F0C701B601A20191010E94E708609334
:100B20009E0170939F018093A0019093A1010BC03F
:100B300080E090E0DC0180939E0190939F01A09360
:100B4000A001B093A101772079F0C501B401A20101
:100B500091010E943E0A6093AC017093AD018093B5
:100B6000AE019093AF010BC080E090E0DC01809378
:100B7000AC019093AD01A093AE01B093AF01CF91C2
:100B8000DF911F910F91FF90EF90DF90CF90BF907A
:100B9000AF909F908F907F905F904F903F902F905D
:100BA00008952F923F924F925F926F927F928F9211
:100BB0009F92AF92BF92CF92DF92EF92FF920F93EC
:100BC0001F93CF93DF93E090B001F090B1010091BB
:100BD000B2011091B301C801B70120E030E0A901D2
:100BE0000E94330A1816FCF060919E0170919F01DB
:100BF0008091A0019091A10120E030E0A9010E9424
:100C0000330A181684F06091AC017091AD018091A7
:100C1000AE019091AF0120E030E0A9010E94330ABB
:100C200018160CF094C0E091AA01F091AB01A080DD
:100C3000B180C280D380E091A401F091A5016081D0
:100C40007181882777FD8095982F0E948209A601DF
:100C500095010E942008962E872E782E692EC601B7
:100C6000B5012091690130916A0140916B01509169
:100C70006C010E942008562E472E382E292E692DF1
:100C8000782D872D962D2091AC013091AD014091AA
:100C9000AE015091AF010E943E0A20916501309152
:100CA000660140916701509168010E942108A62EBB
:100CB000D72EC82EB92E862F9D2DAC2DBB2D8093FF
:100CC000650190936601A0936701B0936801C0919C
:100CD000A801D091A901C801B701292D382D472DB0
:100CE000562D0E943E0A7B018C01652D742D832DAB
:100CF000922D20919E0130919F014091A001509131
:100D0000A1010E943E0A9B01AC01C801B7010E94EB
:100D100020089B01AC016A2D7D2D8C2D9B2D0E94FE
:100D200021080E944F0979836883E091AA01F0911C
:100D3000AB0180819181A281B381809369019093FD
:100D40006A01A0936B01B0936C0181E001C080E067
:100D5000DF91CF911F910F91FF90EF90DF90CF9097
:100D6000BF90AF909F908F907F906F905F904F90CB
:100D70003F902F900895E091A801F091A901808102
:100D800091819923D4F45C985F9A2D9A2C98809144
:100D9000A6019091A701208131812817390714F409
:100DA00091838083E091A801F091A90180818195D0
:100DB00087BD8081819588BD16BCE091A801F09126
:100DC000A9018081918118161906C4F45F985C9A74
:100DD0002D982C9A8091A2019091A30120813181BC
:100DE0008217930714F491838083E091A801F09116
:100DF000A901808187BD808188BD16BC08950097B8
:100E000061F06115710549F07093A7016093A60127
:100E10009093A3018093A20108958FEF90E09093A7
:100E2000A3018093A20181E09FEF9093A70180939B
:100E3000A6010895FC0180818111569A818181115A
:100E4000559A90819295990F990F907C8181829506
:100E5000807F892B92819370892B84BD8281880F3A
:100E600088709381892B85BD0895E0ECF0E0908136
:100E700095FFFDCF8093C60080E090E00895E0EC00
:100E8000F0E080818823ECF78091C60090E008951F
:100E90000F931F93CF93DF93EC018B01CA01B9012C
:100EA00020E030E040E85FE30E9420089B01AC01B5
:100EB00060E074E284E799E40E94E7080E94540924
:100EC0007093C5006093C40088E18093C10086E000
:100ED0008093C20086E591E09093B5018093B401C0
:100EE0009093B7018093B601209751F0E0ECF0E0C9
:100EF000808180688083E1ECF0E08081806880837D
:100F00000115110551F0E0ECF0E0808180688083EC
:100F1000E1ECF0E0808180648083DF91CF911F91CC
:100F20000F9108951F920F920FB60F9211242F93D5
:100F30003F934F935F936F937F938F939F93AF9361
:100F4000BF93EF93FF9386E591E00E943F078D30BA
:100F500001F18E3020F4883009F040C02EC08F326D
:100F600069F08A33D9F581E090E090939D018093F8
:100F70009C0110929B0110929A014CC081E090E07C
:100F800090939D0180939C0110929B0110929A0175
:100F900041C080919C0190919D010097D9F1E09111
:100FA0009A01F0919B01E458FE4F10820E946C035D
:100FB00010929D0110929C012DC080919A019091F8
:100FC0009B011816190634F580919A0190919B01A6
:100FD000019790939B0180939A011CC020919A01E4
:100FE00030919B012E313105ACF420919C01309160
:100FF0009D012115310571F020919A0130919B01DD
:10100000F901E458FE4F80832F5F3F4F30939B01DF
:1010100020939A01E0ECF0E0808180688083FF916A
:10102000EF91BF91AF919F918F917F916F915F9160
:101030004F913F912F910F900FBE0F901F901895D9
:101040005058BB27AA270ED0D4C1C5D130F0CAD181
:1010500020F031F49F3F11F41EF495C10EF4E09599
:10106000E7FB8BC1E92FD6D180F3BA17620773076C
:101070008407950718F071F49EF5EEC10EF4E09523
:101080000B2EBA2FA02D0B01B90190010C01CA0142
:10109000A0011124FF27591B99F0593F50F4503EED
:1010A00068F11A16F040A22F232F342F4427585FDF
:1010B000F3CF469537952795A795F0405395C9F7F7
:1010C0007EF41F16BA0B620B730B840BBAF09150AF
:1010D000A1F0FF0FBB1F661F771F881FC2F70EC04E
:1010E000BA0F621F731F841F48F487957795679521
:1010F000B795F7959E3F08F0B3CF9395880F08F00A
:101100009927EE0F97958795089565D158F080E857
:1011100091E009F49EEF66D128F040E851E059F4DF
:101120005EEF09C030C198C1E92FE07873D168F350
:10113000092E052AC1F3261737074807590738F043
:101140000E2E07F8E02569F0E025E0640AC0EF63A1
:1011500007F8009407FADB01B9019D01DC01CA011F
:10116000AD01EF9343D045D10AD05F91552331F0C3
:101170002BED3FE049E450FD49EC63CF0895DF9348
:10118000DD27B92FBF7740E85FE31616170648073B
:101190005B0710F4D92F6BD19F938F937F936F933D
:1011A000D0D1E8E6F0E0F2D024D12F913F914F91D9
:1011B0005F9170D1DD2349F09058A2EA2AED3FE01B
:1011C00049EC5FE3D0785D274DDFDF9112C10CD091
:1011D00010C108D140F0FFD030F021F45F3F19F08A
:1011E000CCC051113AC1CFC015D198F39923C9F39E
:1011F0005523B1F3951B550BBB27AA27621773071D
:10120000840738F09F5F5F4F220F331F441FAA1FD0
:10121000A9F333D00E2E3AF0E0E830D09150504090
:10122000E695001CCAF729D0FE2F27D0660F771F3E
:10123000881FBB1F261737074807AB07B0E809F020
:10124000BB0B802DBF01FF2793585F4F2AF09E3FB5
:10125000510568F092C001C15F3FECF3983EDCF3AA
:10126000869577956795B795F7959F5FC9F7880F2E
:10127000911D9695879597F90895E1E0660F771F80
:10128000881FBB1F621773078407BA0720F0621B11
:10129000730B840BBA0BEE1F88F7E095089504D00A
:1012A0006894B111DAC00895BDD088F09F5790F0CE
:1012B000B92F9927B751A0F0D1F0660F771F881F7B
:1012C000991F1AF0BA95C9F712C0B13081F0C4D095
:1012D000B1E00895C1C0672F782F8827B85F39F033
:1012E000B93FCCF3869577956795B395D9F73EF4DA
:1012F00090958095709561957F4F8F4F9F4F089582
:10130000E89409C097FB3EF490958095709561959F
:101310007F4F8F4F9F4F9923A9F0F92F96E9BB2755
:101320009395F695879577956795B795F111F8CFD1
:10133000FAF4BB0F11F460FF1BC06F5F7F4F8F4F3C
:101340009F4F16C0882311F096E911C0772321F032
:101350009EE8872F762F05C0662371F096E8862FCA
:1013600070E060E02AF09A95660F771F881FDAF721
:10137000880F9695879597F9089597F99F6780E864
:1013800070E060E008959FEF80EC0895DF93CF93C5
:101390001F930F93FF92EF92DF927B018C01689471
:1013A00005C0DA2EEF0176D0FE01E894A5912591D3
:1013B000359145915591AEF3EF0154DEFE01970151
:1013C000A801DA9479F7DF90EF90FF900F911F91C9
:1013D000CF91DF91089500240A9416161706180677
:1013E0000906089500240A94121613061406050629
:1013F0000895092E0394000C11F4882352F0BB0FBA
:1014000040F4BF2B11F460FF04C06F5F7F4F8F4F1C
:101410009F4F089557FD9058440F551F59F05F3F57
:1014200071F04795880F97FB991F61F09F3F79F006
:1014300087950895121613061406551FF2CF469588
:10144000F1DF08C0161617061806991FF1CF86950A
:101450007105610508940895E894BB2766277727EE
:10146000CB0197F9089570D008F48FEF08959B0190
:10147000AC0160E070E080E89FE3A9CE0BD0B9CF6B
:10148000AADF28F0AFDF18F0952309F076CF7BCFE5
:101490001124E3CFBFDFA0F3959FD1F3950F50E068
:1014A000551F629FF001729FBB27F00DB11D639F16
:1014B000AA27F00DB11DAA1F649F6627B00DA11DBC
:1014C000661F829F2227B00DA11D621F739FB00D62
:1014D000A11D621F839FA00D611D221F749F3327D2
:1014E000A00D611D231F849F600D211D822F762F6B
:1014F0006A2F11249F5750408AF0E1F088234AF068
:10150000EE0FFF1FBB1F661F771F881F91505040B3
:10151000A9F79E3F510570F030CF9FCF5F3FECF3AE
:10152000983EDCF3869577956795B795F795E7959F
:101530009F5FC1F7FE2B880F911D9695879597F9B0
:1015400008959B01AC019ACF990F0008550FAA0B83
:10155000E0E8FEEF16161706E807F907C0F01216C6
:101560001306E407F50798F0621B730B840B950BC9
:1015700039F40A2661F0232B242B252B21F408951E
:101580000A2609F4A140A6958FEF811D811D0895BB
:10159000A3E1B0E0EEECFAE00C94700E6C017F87F2
:1015A0006E87FC0117821682838181FD04C06FC3A0
:1015B0004C855D8504C01E010894211C311CF60178
:1015C0009381EE85FF8593FD859193FF8191FF8740
:1015D000EE87882309F457C3853241F493FD859142
:1015E00093FF8191FF87EE87853259F490E0B60131
:1015F0004A8B5B8B0E94950F4A895B895D874C877C
:10160000D7CF10E0FF2400E00032B0F48B3269F055
:101610008C3228F4803251F0833271F40BC08D3259
:1016200039F0803349F401602CC00260046029C0A5
:10163000086027C0006125C007FD2EC0282F205359
:101640002A3098F406FF08C0812F880F182F110F39
:10165000110F180F120F15C08F2D880FF82EFF0CC9
:10166000FF0CF80EF20E00620CC08E3221F406FD63
:101670000AC3006406C08C3611F4006802C08836C4
:1016800059F4EE85FF8593FD859193FF8191FF8746
:10169000EE87882309F0B8CF982F9554933018F42B
:1016A0000061805E06C0982F9556933008F09BC16C
:1016B0000F7E06FF16E06FE3E62EE022853619F472
:1016C000F0E4EF2A07C0863619F420E8E22A02C0C7
:1016D00011111150E7FE06C01C3340F4912E939473
:1016E00027E00BC0183030F4212F06C027E03CE380
:1016F000932E03C027E017E09924CA0104969D8722
:101700008C87FA016081718182819381A101092D09
:101710000E94A70E5C016980262D30E0398B288B52
:1017200060FE03C0388933FF06C0E1FC06C0E2FE5C
:1017300006C000E205C00DE203C00BE201C000E0FC
:10174000888999898C7090700097C1F1002311F0FD
:1017500084E001C083E08F1558F4F81AE3FC09C057
:1017600080E290E0B6010E94950FFA94C9F701C09B
:10177000FF24002329F0802F90E0B6010E94950FEE
:10178000888983FD03C009E910E00EC005E910E077
:101790000BC0A114B10409F0805290E0B6010E9480
:1017A000950F0F5F1F4F05C0AE2CBB2490E1A922FF
:1017B000BB24F8018491882361F762C2E7FE0EC062
:1017C0009A0CF889F4FF04C08A81813309F49A9451
:1017D000191454F5292D293050F52DC0E6FC2BC0E5
:1017E000812F90E08A159B054CF03CEFA3163FEF4C
:1017F000B30624F080E8E82A01C01150112349F013
:10180000E2E0F0E0EC0FFD1FE10FF11D808180337D
:10181000A1F3E7FE10C0912E9394812F90E0A816BB
:10182000B90644F41A1907C09924939404C098E0A7
:10183000992E01C010E0E7FE07C01A141B043CF407
:1018400095012F5F3F4F05C025E030E002C021E049
:1018500030E0002311F02F5F3F4F112329F0812F3B
:1018600090E00196280F391F8F2D90E02817390737
:1018700014F4F21A01C0FF244E2C5524C2018970C1
:101880009070009749F406C080E290E0B6010E9493
:10189000950FFA94FF20C1F7002329F0802F90E0E4
:1018A000B6010E94950F43FC09C006C080E390E09A
:1018B000B6010E94950FFA94FF20C1F7E7FE46C0DB
:1018C0003501B7FE02C06624772425010894411C27
:1018D000511C46185708420C531CF501E919F1092F
:1018E0004F01812F90E000271127081B190BFFEFF4
:1018F0006F16FFEF7F0629F48EE290E0B6010E949A
:10190000950FA614B70434F0861497041CF4F20162
:10191000808101C080E30894610871080894411C2B
:10192000511C601671062CF090E0B6010E94950FD4
:10193000DECF6A147B0441F49A81963320F4953308
:1019400019F4F889F4FF81E390E049C08A8181337A
:1019500011F02FEE622290E0B6010E94950F112344
:1019600089F08EE290E0B6010E94950F02E0F1014D
:10197000E00FF11D0F5F808190E0B6010E94950F8E
:101980001150A9F744FE03C085E490E002C085E64B
:1019900090E0B6010E94950FB7FC05C0A114B104F8
:1019A00041F464FE06C0B094A194B108B3948DE2F2
:1019B00001C08BE290E0B6010E94950F80E305C064
:1019C0008F5FE6EFFFEFAE0EBF1EFAE0AF16B10479
:1019D000BCF790E0B6010E94950FC501C096B60114
:1019E0000E94950F4DC1833631F0833789F08335DE
:1019F00009F059C022C09A012E5F3F4F3D872C87C6
:101A0000FA0180818983310181E0A82EB12C13C0B5
:101A10009A012E5F3F4F3D872C87FA0160807180CD
:101A200006FF03C0612F70E002C06FEF7FEFC301BC
:101A30000E948A0F5C010F7714C09A012E5F3F4FFE
:101A40003D872C87FA016080718006FF03C0612FFB
:101A500070E002C06FEF7FEFC3010E947F0F5C0157
:101A6000006803FD1CC006C080E290E0B6010E9441
:101A7000950FFA948F2D90E0A816B906A8F30FC021
:101A8000F30107FD859107FF81913F0190E0B601C9
:101A90000E94950FF110FA940894A108B108A114BE
:101AA000B10471F7EDC0843611F0893661F507FF96
:101AB0000BC09A012C5F3F4F3D872C87FA01608154
:101AC0007181828193810CC09A012E5F3F4F3D87C7
:101AD0002C87FA0160817181882777FD8095982F86
:101AE0000F7697FF08C090958095709561957F4F10
:101AF0008F4F9F4F0068A1012AE030E00E940B1039
:101B0000982E921841C0853721F40F7E2AE030E0EC
:101B100020C0097F8F36A9F0803720F4883509F07E
:101B2000B2C00BC0803721F0883709F0ACC001C0CB
:101B3000006104FF09C0046007C004FF08C006601C
:101B400006C028E030E005C020E130E002C020E11E
:101B500032E007FF0AC0CA0104969D878C87FA010C
:101B6000608171818281938109C0CA0102969D873B
:101B70008C87FA016081718180E090E0A1010E9470
:101B80000B10982E92180F7706FF09C00E7F911642
:101B900030F404FF06C002FD04C00F7E02C0E92C31
:101BA00001C0E12E802F90E004FF0CC0FE01E90D82
:101BB000F11D2081203311F4097E09C0E39402FF56
:101BC00006C004C086789070009709F0E394A02EB8
:101BD000BB2403FD14C000FF0FC0EF1428F4192D1F
:101BE0001F0D1E19EF2C08C0192D06C080E290E0D1
:101BF000B6010E94950FE394EF14C0F304C0EF14F4
:101C000010F4FE1801C0FF24A4FE0FC080E390E092
:101C1000B6010E94950FA2FE1FC0A1FE03C088E579
:101C200090E010C088E790E00DC0C5018678907004
:101C3000009791F0A1FC02C080E201C08BE207FD99
:101C40008DE290E0B6010E94950F06C080E390E01F
:101C5000B6010E94950F11509116C0F39A94F101AC
:101C6000E90DF11D808190E0B6010E94950F992049
:101C7000A9F706C080E290E0B6010E94950FFA94A1
:101C8000FF20C1F795CCF6012681378102C02FEFE6
:101C90003FEFC9016396E2E10C948C0EA1E21A2E8B
:101CA000AA1BBB1BFD010DC0AA1FBB1FEE1FFF1F00
:101CB000A217B307E407F50720F0A21BB30BE40B50
:101CC000F50B661F771F881F991F1A9469F7609597
:101CD0007095809590959B01AC01BD01CF01089551
:101CE0002F923F924F925F926F927F928F929F922C
:101CF000AF92BF92CF92DF92EF92FF920F931F931A
:101D0000CF93DF93CDB7DEB7CA1BDB0B0FB6F894CA
:101D1000DEBF0FBECDBF09942A88398848885F840A
:101D20006E847D848C849B84AA84B984C884DF807B
:101D3000EE80FD800C811B81AA81B981CE0FD11D5F
:101D40000FB6F894DEBF0FBECDBFED010895283069
:101D500008F027E03327DA01990F311D87FD9160E4
:101D600000966105710539F432602E5F3D9330E3D2
:101D70002A95E1F708959F3F30F08038710561059D
:101D800009F03C5F3C5F3D93913008F08068911D05
:101D9000DF93CF931F930F93FF92EF92192F987FAA
:101DA0009695E92F96959695E90FFF27E950FF4FF5
:101DB00099273327EE24FF24A701E7010590089413
:101DC000079428F4360FE71EF81E491F511D660FB1
:101DD000771F881F991F0694A1F70590079428F490
:101DE000E70EF81E491F561FC11D770F881F991F48
:101DF000661F0694A1F70590079428F4F80E491F72
:101E0000561FC71FD11D880F991F661F771F069485
:101E1000A1F70590079420F4490F561FC71FD81F3C
:101E2000990F661F771F881F0694A9F78491109554
:101E3000177041F0D695C79557954795F794E79455
:101E40001A95C1F7EDE9F0E0689415901591359178
:101E50006591959105907FE27395E118F10A430B26
:101E6000560BC90BD009C0F7E10CF11E431F561FDA
:101E7000C91FD01D7EF4703311F48A95E6CFE89423
:101E8000015030F0080F0AF40027021708F4202F41
:101E90002395022F7A3328F079E37D932A95E9F789
:101EA00010C07D932A9589F6069497956795379586
:101EB00017951794E118F10A430B560BC90BD0097B
:101EC00098F023957E9173957A3308F070E37C93B4
:101ED0002013B8F77E9170617D9330F0839571E3A4
:101EE0007D9370E32A95E1F71124EF90FF900F9115
:101EF0001F91CF91DF91992787FD90950895FC015F
:101F00000590615070400110D8F7809590958E0F24
:101F10009F1F0895FC016150704001900110D8F797
:101F2000809590958E0F9F1F08950F931F93CF93C9
:101F3000DF938C01EB018B8181FF1BC082FF0DC001
:101F40002E813F818C819D812817390764F4E881B7
:101F5000F9810193F983E88306C0E885F985802F2C
:101F60000995009731F48E819F8101969F838E831E
:101F700002C00FEF1FEFC801DF91CF911F910F91AA
:101F80000895A0E0B0E0E7ECFFE00C94800EFE01C5
:101F90003596619171918091B6019091B701AF0131
:101FA0000E94C80A2096E2E00C949C0EEF92FF92E9
:101FB0000F931F93CF93DF938C01E091B601F091C3
:101FC000B701838181FF1FC0C0E0D0E00AC0DB0100
:101FD0001896ED91FC9119970995009711F0CFEFA4
:101FE000DFEFF80181918F016091B6017091B70127
:101FF000882369F7DB011896ED91FC9119978AE027
:102000000995009711F0CFEFDFEFCE01CDB7DEB726
:10201000E6E00C94980EFA01AA27283051F12031FD
:1020200081F1E8946F936E7F6E5F7F4F8F4F9F4F6C
:10203000AF4FB1E03ED0B4E03CD0670F781F891FAE
:102040009A1FA11D680F791F8A1F911DA11D6A0F7C
:10205000711D811D911DA11D20D009F468943F912F
:102060002AE0269F11243019305D3193DEF6CF012E
:102070000895462F4770405D4193B3E00FD0C9F7F4
:10208000F6CF462F4F70405D4A3318F0495D31FD61
:102090004052419302D0A9F7EACFB4E0A6959795B4
:1020A000879577956795BA95C9F70097610571058A
:1020B00008959B01AC010A2E0694579547953795D4
:1020C0002795BA95C9F7620F731F841F951FA01D2E
:0620D0000895F894FFCF13
:1020D6005561727420486162696C69746164610D4E
:1020E600004D50555F6F6B0D004164656C616E74F9
:1020F600650D0025640D0A0041747261730D004977
:102106007A717569657264610D004465726563680C
:10211600610D00436F6D616E646F20696E76616C50
:1021260069646F00FAFF0000000300000000350735
:042136003F0700005F
:00000001FF
